:020000040800F2
:10000000101D002029450008D1040008D304000871
:10001000D7040008DB040008DF040008000000002B
:10002000000000000000000000000000E3040008E1
:10003000E5040008000000000F470008E70400087E
:100040004345000843450008434500084345000870
:100050004345000843450008434500084345000860
:100060004345000843450008434500084345000850
:100070004345000843450008434500084345000840
:100080004345000843450008434500084345000830
:100090004345000843450008434500084345000820
:1000A0004345000843450008434500084345000810
:1000B0004345000843450008434500084345000800
:1000C00043450008434500084345000843450008F0
:1000D00043450008EF040008434500084345000875
:1000E00043450008434500084345000843450008D0
:1000F00043450008434500084345000843450008C0
:1001000043450008434500084345000843450008AF
:1001100043450008434500086D05000883050008B5
:10012000434500084345000843450008434500088F
:10013000DFF80CD008F0BAF900480047ED030008DA
:10014000101D002010B5C348007802281DD1C148F9
:100150004078072818D2DFE800F017040A070D10CE
:10016000130000F01AFE10BD00F073FEFBE700F074
:10017000E1FDF8E700F050FEF5E700F01BFAF2E7CA
:10018000142000F0AEFEEEE7EDE7B248007801285B
:100190007ED1B048407801280BD1AE488078242821
:1001A00007DDAC488078B42803DAAA488078AA49E9
:1001B0000880A848407802280BD1A64880782428D7
:1001C00007DDA4488078B42803DAA2488078A349E0
:1001D0000880A048407803280BD19E4880782428C6
:1001E00007DD9C488078B42803DA9A4880789C49D7
:1001F00008809848407804280BD1964880782428B5
:1002000007DD94488078B42803DA924880789549CD
:1002100008809048407805280CD18E4880782428A2
:1002200008DD8C488078B42804DA8A4880784FF05A
:10023000804188878748407806280BD18548807898
:10024000242807DD83488078B42803DA8148807841
:10025000854908807F48407807280BD17D48807801
:10026000242807DD7B488078B42803DA7948807831
:100270007E4908807748407808280DD175488078F5
:10028000242809DD73488078B42805DA714800E035
:10029000A4E08078764908806E48407809280BD120
:1002A0006C488078242807DD6A488078B42803DA0F
:1002B000684880786F490880664840780A280BD1E2
:1002C00064488078242807DD62488078B42803DAFF
:1002D00060488078684908805E4840780B280BD1D8
:1002E0005C488078242807DD5A488078B42803DAEF
:1002F0005848807861490880564840780C280BD1CE
:1003000054488078242807DD52488078B42803DADE
:10031000504880785A4908804E4840780D280BD1C3
:100320004C488078242807DD4A488078B42803DACE
:100330004848807853490880464840780E280BD1B9
:1003400044488078242807DD42488078B42803DABE
:10035000404880784C4908803E4840780F280BD1AF
:100360003C488078242807DD3A488078B42803DAAE
:1003700038488078454908803648407810280BD1A5
:1003800034488078242807DD32488078B42803DA9E
:10039000304880783E4908802E48407811280BD19B
:1003A0002C488078242807DD2A488078B42803DA8E
:1003B00028488078374908802648407812280CD190
:1003C0002448807824280FDD22488078B4280BDA6E
:1003D000204880783049088006E0C4E61D4800784F
:1003E000EE2800D100E0BEE600BFBCE61CB500F080
:1003F0003DFF0121084602F072FC01F037FC01F0DC
:1004000099FE01F0F3F901F09AFB01F083FB01F092
:10041000A1FA01F049FA07F01DFC01F0B3FB01F06D
:10042000D4FB00F0C7F814E01C48006807F0B7FEE2
:1004300004460D461A48006807F0B1FE064602461B
:100440000B4618A0CDE9004508F070F81F4800F0F1
:1004500040FFE9E700000020342C0140382C014027
:100460003C2C0140402C014040000040340400403E
:10047000380400403C040040400400403408004080
:10048000380800403C08004040080040340C004060
:10049000380C00403C0C0040400C0040C8000020DC
:1004A000D80000200D0A78D6E1BDC7B6C8A3BA208F
:1004B00025662020202020200D0A79D6E1BCD3CB50
:1004C000D9B6C8A3BA0925660A090000A0860100AA
:1004D000704700BFFEE700BFFEE700BFFEE700BFBA
:1004E000FEE77047704710B500F003FF10BD10B570
:1004F00020212A4803F0E3FC012831D1202127489C
:1005000003F0EAFC2648007858B9244803F06DFC53
:10051000FF282AD1012022490870002021490870B3
:1005200023E01E4803F061FCFF280CD100201C4989
:1005300008701C480078032801D1FFF703FE002053
:100540001849087011E0154803F04FFC1649154A88
:100550001278885413480078401C1249087004E04F
:100560004FF480710D4803F0B7FC10BD10B50121A8
:100570000E4803F0E2FA18B101210C4803F0EEFA3C
:1005800010BD10B501210A4803F0D7FA28B10121A6
:10059000074803F0E3FA01F07DFF10BD0038014089
:1005A0001300002012000020000000200010004076
:1005B0000014004010B5FF48406881B2FE4803F0C7
:1005C0008BFAFC48806881B2FB4803F087FAF9484F
:1005D000C06C81B2F84803F083FAF648006981B232
:1005E000F54803F07FFAF348406981B24FF080404C
:1005F00003F076FAEF48806981B24FF0804003F053
:1006000071FAEC48C06981B2EC4803F065FAE94838
:10061000006A81B2E94803F061FAE648006D81B2F0
:10062000E64803F05DFAE348806A81B2E34803F0EC
:1006300059FAE048C06A81B2E14803F04DFADD485A
:10064000406D81B2DE4803F049FADA48406B81B26E
:10065000DB4803F045FAD748806B81B2D84803F0F5
:1006600041FAD448C06B81B2D64803F035FAD1487C
:10067000006C81B2D34803F031FACE48406C81B2AD
:10068000D04803F02DFACB48806D81B2CD4803F0FD
:1006900029FAC848C06C81B24FF0804003F01CFAC0
:1006A000C448006D81B24FF0804003F017FA10BDCE
:1006B00070B50646002400255BE0642106FB01F0CE
:1006C00000F007FEBB48006A204481B2BB4803F03B
:1006D00005FAB8488068204481B2B74803F0FEF9B3
:1006E000B4484069204481B24FF0804003F0F8F9EB
:1006F000B048C06A001B81B2B14803F0EDF9AD48C3
:10070000406C001B81B2AF4803F0EAF9A948806B46
:10071000001B81B2AA4803F0E5F9A64840682844C6
:1007200081B2A54803F0D8F9A2480069284481B2F3
:10073000A14803F0D7F99F48C069284481B29F4877
:1007400003F0CAF99B48806A401B81B29B4803F0C2
:10075000C9F99848406B401B81B2994803F0C0F931
:100760009448006C401B81B2964803F0B7F9A41C72
:10077000AD1C2E2CA1DD42F2107000F0AAFD70BD60
:1007800070B506460024002501F053F889488069B9
:1007900081B24FF0804003F0A5F98648006B81B22A
:1007A000874803F09BF98348806C81B2854803F049
:1007B00099F98048C06881B27F4803F091F97D487B
:1007C000406A81B27D4803F08BF97A48C06B81B2F0
:1007D0007C4803F081F967E0642106FB01F000F03A
:1007E00078FD7448006A2E30001B81B2734803F014
:1007F00075F9704880682E30001B81B26E4803F096
:100800006DF96C4840692E30001B81B24FF080407A
:1008100003F066F96748C06A2E38204481B2684800
:1008200003F05AF96348406C2E38204481B2654881
:1008300003F056F95F48806B2E38204481B260483F
:1008400003F050F95B4840681230401B81B25A48AF
:1008500003F042F9574800691230401B81B25648F4
:1008600003F040F95348C0691230401B81B253482D
:1008700003F032F94F48806A1238284481B24F4859
:1008800003F030F94B48406B1238284481B24C4891
:1008900003F026F94748006C1238284481B24948D1
:1008A00003F01CF9A41CAD1C2E2C95DD70BD2DE9A8
:1008B000F05F81468A4693464FF0000826E06421A7
:1008C0000BFB01F000F005FD3A4840684844404405
:1008D00081B2394803F000F93648C06948444044C1
:1008E00081B2364803F0F8F83248406BA0EB0900BB
:1008F000A0EB080081B2324803F0F2F8BAF1000F21
:1009000002DD08F1020801E0A8F10208504607F0F4
:1009100016FC21F000450446404607F010FC21F08B
:100920000041064622462B4607F050FCC7D9BDE8D9
:10093000F09F2DE9F05F81468A4693464FF000080C
:1009400026E064210BFB01F000F0C3FC194880682D
:100950004844404481B2184803F0C0F81548006A82
:100960004844404481B2154803F0B8F81148806B00
:10097000A0EB0900A0EB080081B2114803F0B2F827
:10098000BAF1000F02DD08F1020801E0A8F1020847
:10099000504607F0D4FB21F000450446404607F0DE
:1009A000CEFB21F00041064622462B4607F00EFC06
:1009B000C7D909E014000020002C014000040040C9
:1009C00000080040000C0040BDE8F09F2DE9F05FFA
:1009D00081468A4693464FF0000826E064210BFBCF
:1009E00001F000F076FCFF48C06C4844404481B2FE
:1009F000FD4803F075F8FB48006D4844404481B25F
:100A0000FA4803F06DF8F748C06BA0EB0900A0EBC3
:100A1000080081B2F64803F05FF8BAF1000F02DD7A
:100A200008F1020801E0A8F10208504607F087FB30
:100A300021F000450446404607F081FB21F00041CB
:100A4000064622462B4607F0C1FBC7D9BDE8F09FFA
:100A50002DE9F05F81468A4693464FF000082AE070
:100A600064210BFB01F000F034FCDE48C06CA0EB0D
:100A70000900A0EB080081B2DB4803F031F8D94847
:100A8000006DA0EB0900A0EB080081B2D74803F08D
:100A900027F8D448C06BA0EB0900A0EB080081B296
:100AA000D34803F019F8BAF1000F02DD08F102088B
:100AB00001E0A8F10208504607F041FB21F0004593
:100AC0000446404607F03BFB21F000410646224623
:100AD0002B4607F07BFBC3D9BDE8F09F2DE9F05F03
:100AE00081468A4693464FF0000829E064210BFBBB
:100AF00001F000F0EEFBBB48C06AA0EB0900A0EBE0
:100B0000080081B2BB4802F0E7FFB648406CA0EB9A
:100B10000900A0EB080081B2B54802F0E1FFB1483E
:100B200040694844404481B24FF0804002F0D8FF11
:100B3000BAF1000F02DD08F1020801E0A8F1020895
:100B4000504607F0FCFA21F000450446404607F005
:100B5000F6FA21F00041064622462B4607F036FB06
:100B6000C4D9BDE8F09F2DE9F05F81468A469346DF
:100B70004FF0000829E064210BFB01F000F0A9FB15
:100B8000984880694844404481B24FF0804002F068
:100B9000A9FF9448406DA0EB0900A0EB080081B2CA
:100BA000944802F09BFF8F48806DA0EB0900A0EBFA
:100BB000080081B28E4802F095FFBAF1000F02DD05
:100BC00008F1020801E0A8F10208504607F0B7FA60
:100BD00021F000450446404607F0B1FA21F00041FB
:100BE000064622462B4607F0F1FAC4D9BDE8F09F2D
:100BF0002DE9F05F81468A4693464FF000082BE0CE
:100C000064210BFB01F000F064FB76488069A0EBE7
:100C10000900A0EB080081B24FF0804002F062FFB3
:100C20007048406DA0EB0900A0EB080081B271484C
:100C300002F054FF6B48806DA0EB0900A0EB0800A8
:100C400081B26B4802F04EFFBAF1000F02DD08F1ED
:100C5000020801E0A8F10208504607F070FA21F0FE
:100C600000450446404607F06AFA21F00041064676
:100C700022462B4607F0AAFAC2D9BDE8F09F2DE91B
:100C8000FC470746884691469A4600263EE0642186
:100C90000AFB01F000F01DFB5248C06CC01B801B1A
:100CA00081B2514802F01CFF4E48806AC01B801B75
:100CB00081B24E4802F014FF4A48C06BC01B801B33
:100CC00081B24B4802F008FF46488069A0EB08005B
:100CD000801B81B24FF0804002F004FF4148406D1C
:100CE000A0EB0800801B81B2424802F0F7FE3D48AD
:100CF000806DA0EB0800801B81B23D4802F0F2FE3F
:100D0000B9F1000F01DDB61C00E0B61E484607F041
:100D100016FA21F000450446304607F010FA21F09B
:100D2000004122462B46CDE9000107F04FFAAED92B
:100D3000BDE8FC871E2210210020FFF7FAFD2BE002
:100D40001E220F210020FFF70EFF1E226FF00F0161
:100D50001020FFF7EEFD1E2210210020FFF7BEFE3F
:100D60001E226FF00E010F20FFF7FDFE1E220F2145
:100D70000020FFF72BFE1E226FF00F011020FFF75F
:100D8000ADFE1E2210210020FFF7D3FD1E226FF0C2
:100D90000E010F20FFF71AFED2E71E2210210020BD
:100DA000FFF7C7FD37E01E226FF00E010020FFF7AE
:100DB000DAFE1E226FF00F011020FFF7BAFD1E228F
:100DC00010210020FFF78AFE1E220F214842FFF764
:100DD000CAFE1E226FF00E010020FFF7F7FD1E2253
:100DE0000AE0000014000020002C01400004004034
:100DF000000C0040000800406FF00F011020FFF7CA
:100E00006DFE1E2210210020FFF793FD1E220F21F0
:100E10004842FFF7DBFDC6E71E2210210020FFF746
:100E200088FD15E01E226FF00F011020FFF781FDF5
:100E30001E2210210020FFF751FE1E226FF00F012D
:100E40001020FFF74BFE1E2210210020FFF771FD3E
:100E5000E8E71CB544E000F036FEF04801F0ECF99C
:100E6000EE48B0F90010EEA007F060FBF048006813
:100E700007F095F904460D46EE48006807F08FF933
:100E8000064602460B46ECA0CDE9004507F04EFBB6
:100E90001E230F2200210846FFF7F1FE1E2210211B
:100EA0000020FFF71BFE1E226FF00E010F20FFF740
:100EB0009FFE1E226FF00F011020FFF70FFE1E2273
:100EC00010210020FFF735FD1E226FF00E010F20CC
:100ED000FFF7BEFD1E226FF00F011020FFF729FD66
:100EE000B9E770B50546002487E0642105FB01F0F1
:100EF00000F0EFF9D848406881B2D84802F0ECFD24
:100F0000D5488068204481B2D44802F0E7FDD24839
:100F1000C06C81B2D14802F0E3FDCF48006981B2D4
:100F2000CE4802F0DFFDCC484069204481B24FF04A
:100F3000804002F0D5FDC848806981B24FF0804002
:100F400002F0D0FDC448C06981B2C54802F0C4FDBA
:100F5000C148006A204481B2C14802F0BFFDBE48CA
:100F6000006D81B2BE4802F0BBFDBB48806A81B211
:100F7000BB4802F0B7FDB848C06A001B81B2B9484F
:100F800002F0AAFDB448406D81B2B64802F0A6FD59
:100F9000B148C06D81B2B34802F0A2FDAE48806B8B
:100FA000001B81B2AF4802F09DFDAB48C06B81B21F
:100FB000AD4802F091FDA848006C81B2AA4802F049
:100FC0008DFDA548406C001B81B2A74802F088FD4A
:100FD000A148806D81B2A44802F084FD9E48C06C97
:100FE00081B24FF0804002F077FD9B48006D81B2E6
:100FF0004FF0804002F072FDA41C102C7FF775AFFB
:1010000070BD2DE9F05F81468A4693464FF0000897
:1010100024E064210BFB01F000F05BF98E4840688E
:101020004844404481B28D4802F056FD8A48006928
:101030004844404481B2894802F054FD8648C06962
:101040004844404481B2864802F046FDBAF1000FA0
:1010500002DD08F1020801E0A8F10208504607F09D
:101060006EF821F000450446404607F068F821F08C
:101070000041064622462B4607F0A8F8C9D9BDE82C
:10108000F09F2DE9F05F81468A4693464FF00008B5
:1010900025E064210BFB01F000F01BF96E4880682D
:1010A0004844404481B26D4802F018FD6A484069E6
:1010B0004844404481B24FF0804002F011FD664840
:1010C000006A4844404481B2654802F007FDBAF125
:1010D000000F02DD08F1020801E0A8F10208504605
:1010E00007F02DF821F000450446404607F027F8A8
:1010F00021F00041064622462B4607F067F8C8D982
:10110000BDE8F09F2DE9F05F81468A4693464FF097
:1011100000082AE064210BFB01F000F0DAF84E48E9
:10112000C06AA0EB0900A0EB080081B24D4802F0B4
:10113000D3FC4948406CA0EB0900A0EB080081B249
:10114000494802F0CDFC4448806BA0EB0900A0EBBD
:10115000080081B2434802F0C5FCBAF1000F02DD7D
:1011600008F1020801E0A8F10208504606F0E7FF86
:1011700021F000450446404606F0E1FF21F0004121
:10118000064622462B4607F021F8C3D9BDE8F09F5A
:101190002DE9F05F81468A4693464FF000082AE029
:1011A00064210BFB01F000F094F82B48806AA0EB5F
:1011B0000900A0EB080081B2294802F093FC264800
:1011C000406BA0EB0900A0EB080081B2254802F0BB
:1011D00087FC2148006CA0EB0900A0EB080081B25D
:1011E000214802F07BFCBAF1000F02DD08F1020891
:1011F00001E0A8F10208504606F0A1FF21F00045E9
:101200000446404606F09BFF21F000410646224678
:101210002B4606F0DBFFC3D9BDE8F09F100000208D
:1012200020202020CEC2B6C825640D0A0000000090
:10123000C8000020D8000020BDC7B6C8A3BA20252A
:10124000662020202020202079D6E1BCD3CBD9B63F
:10125000C8A3BA092566090014000020002C01402B
:101260000004004000080040000C004025490968C7
:10127000254AB1FBF2F0B0F1807F01D301211CE0DF
:1012800020F07F41491E4FF0E022516100BF51170D
:10129000002905DA0F2109011C4A0B23D15404E06F
:1012A0000F2109011A4A5317D15400BF00214FF0F2
:1012B000E022916107211161002109B100BFFEE721
:1012C0004FF0E020006920F001004FF0E0210861BC
:1012D0007047104908604FF0E021096941F00101B1
:1012E0004FF0E022116100BF0A4909680029FBD1D3
:1012F00070470848006820B106480068401E05494C
:1013000008607047F0000020A086010018ED00E0A2
:1013100000E400E07C00002008B50121082001F075
:10132000EBFC0121042001F0DAFC0F20ADF80000F5
:1013300018208DF8030003208DF802006946FF484D
:1013400001F01AFA08BD10B5FFF7E6FF40F29F5012
:10135000FB498880FB48008808800020C8804880BE
:10136000F94801F0FBFD6020F84908800120488021
:10137000F7480088C88000200881F34801F02BFE60
:101380000821F14802F052FA0120F0494880F14862
:101390000088C880EC4801F060FE0821EA4802F0AD
:1013A0004EFA0120E9494880EB480088C880E648A9
:1013B00001F09CFE0821E44802F04CFA0120E349C8
:1013C0004880E6480088C880DF4801F0D6FE082142
:1013D000DD4802F048FA0121DB4802F0F7F901216B
:1013E000D94802F0EAF810BD08B50121042001F047
:1013F00083FC0121212001F072FC0121080301F08E
:101400008AFA4FF47040ADF8000018208DF8030000
:1014100003208DF802006946D14801F0ADF908BDFE
:1014200010B5FFF7E1FF40F29F50C5498880C548DD
:10143000008808800020C8804880CA4801F08EFDDE
:101440006020C249088001204880C1480088C880C7
:1014500000200881C34801F0BEFD0821C14802F008
:10146000E5F90120B9494880BA480088C880BD48DC
:1014700001F0F3FD0821BB4802F0E1F90120B34976
:101480004880B5480088C880B64801F02FFE082182
:10149000B44802F0DFF90120AC494880AF48008829
:1014A000C880B04801F069FE0821AE4802F0DBF9BF
:1014B0000121AC4802F08AF90121AA4802F07DF826
:1014C00010BD08B50121022001F016FC01211020F9
:1014D00001F005FC0121A44801F01DFA0121084694
:1014E00001F0FDFB4FF47070ADF8000018208DF88E
:1014F000030003208DF8020069469C4801F03CF986
:1015000008BD10B5FFF7DDFF40F29F508C49888081
:101510008C48008808800020C8804880944801F0EA
:101520001DFD602089490880012048808848008886
:10153000C880002008818E4801F04DFD08218C48AC
:1015400002F074F901208149488082480088C880EF
:10155000874801F082FD0821854802F070F90120DA
:101560007A4948807C480088C880814801F0BEFDE7
:1015700008217F4802F06EF90120744948807748BD
:101580000088C8807A4801F0F8FD0821784802F008
:101590006AF90121764802F019F90121744802F034
:1015A0000CF810BD08B50121084601F0A5FB01218A
:1015B000082001F094FB01216E4801F0ACF94FF4D2
:1015C0004060ADF8000018208DF8030003208DF86E
:1015D00002006946684801F0CFF808BD10B5FFF772
:1015E000E1FF40F29F5056498880564800880880A5
:1015F0000020C88048804FF0804001F0AFFC6020A0
:10160000524908800120488051480088C880002045
:1016100008814FF0804001F0DEFC0821C80602F08E
:1016200005F90120494948804A480088C8804FF0A0
:10163000804001F012FD0821C80602F000F90120E7
:101640004249488044480088C8804FF0804001F0FB
:101650004DFD0821C80602F0FDF801203B494880F5
:101660003E480088C8804FF0804001F086FD082188
:10167000C80602F0F8F80121880702F0A7F8012156
:10168000880701F09AFF10BD08B50121C80201F0DA
:1016900026FB0121402001F022FB0121084601F038
:1016A0001EFB0121354801F036F94FF4D440ADF866
:1016B000000018208DF8030003208DF80200694611
:1016C0002F4801F059F808BD10B5FFF7DDFF40F2D3
:1016D0009F501B4988801B48008808800020C880D4
:1016E0004880284801F03AFC602018490880012011
:1016F00048800420888016480088C880002008811F
:101700004FF4807088810020C8811E4801F063FC7E
:1017100008211C4802F08AF801200C494880042066
:1017200088800C480088C880164801F096FC082183
:10173000144802F084F80120044925E00008014023
:101740007001002080000020000C00407A01002081
:1017500082000020840000208600002088000020F5
:101760000014014000080040000C1A000010014065
:101770000004004000031800000C0140C0001600E7
:1017800000180140002C0140488004208880344823
:101790000088C880334801F0A9FC0821314802F0D4
:1017A00059F8012030494880042088802F4800885B
:1017B000C8802C4801F0E1FC08212A4802F053F8C7
:1017C0004FF400602A49088040104880254801F005
:1017D000BFFE0121234801F0F9FF0121214801F05A
:1017E000ECFE01211F4801F0F4FE10BD10B5FFF71B
:1017F0006BFFFFF7F3FEFFF784FEFFF711FEFFF725
:10180000A2FD10BD10B50021164801F0D6FE002142
:101810004FF0804001F0D1FE0021164801F0CDFECE
:101820000021154801F0C9FE0021144801F0C5FE51
:1018300010BD10B501210B4801F0BFFE0121880742
:1018400001F0BBFE01210B4801F0B7FE01210A485F
:1018500001F0B3FE0121094801F0AFFE10BD000008
:1018600086000020002C01407A0100208800002022
:101870008A0100200004004000080040000C0040E5
:1018800008B54FF4E06000F09BFE25208DF80000C5
:1018900000208DF801008DF8020001208DF8030072
:1018A000684600F092FE08BD00B585B0012144F203
:1018B000040001F014FA4FF40070ADF81000182085
:1018C0008DF8130003208DF8120004A91F4800F0C2
:1018D00053FF4FF48060ADF8100004208DF8130022
:1018E00004A91A4800F048FF4FF416500090002059
:1018F000ADF80400ADF80600ADF80800ADF80C0036
:101900000C20ADF80A006946114802F06EF9012278
:1019100040F225510E4802F000FAFFF7B1FF012115
:101920000B4802F0EEF905B000BD70B504460D4657
:10193000E1B2074802F055FA00BF8021044802F0E6
:10194000BEFA0028F9D0204670BD00000008014012
:101950000038014008B50121082001F0C0F94FF41A
:10196000A040ADF8000010208DF8030003208DF892
:1019700002006946574800F0FFFE4FF42040ADF8E2
:10198000000004208DF803006946524800F0F4FE80
:1019900008BD10B5504802F0BEF800EB800000EB27
:1019A000001040004FF4FA6190FBF1F04B490880C1
:1019B00010BD10B5484802F0AEF800EB800000EB17
:1019C000001040004FF4FA6190FBF1F044490880A8
:1019D00010BD70B54FF480513E4800F078FF0220F2
:1019E000FFF777FC4FF480513A4800F072FF00BFD8
:1019F0004FF40051374800F050FF0028F8D0012183
:101A0000354801F0DAFD00BF4FF40051314800F0D5
:101A100044FF0028F8D100212F4801F0CEFDFFF748
:101A2000B8FF00212C4802F053F82C4805880488A0
:101A3000E01704EB10600012A4EB0022E81705EB9E
:101A40001060011227A006F071FD70BD70B54FF453
:101A50008041204800F03BFF0220FFF73AFC4FF4A2
:101A600080411C4800F035FF00BF4FF40041194889
:101A700000F013FF0028F8D00121174801F09DFD68
:101A800000BF4FF40041134800F007FF0028F8D1D1
:101A90000021114801F091FDFFF78BFF00210E4856
:101AA00002F016F80E4805880488E01704EB106071
:101AB0000012A4EB0022E81705EB106001120FA042
:101AC00006F034FD70BD10B5FFF783FFFFF7BEFFD2
:101AD00010BD0000000C0140001000408A000020F2
:101AE0008C0000200D0A64697374616E63653A2589
:101AF00064256420636D0D0A000000000D0A64690E
:101B00007374616E6365313A2564256420636D0DDD
:101B10000A00000008B54FF4E06000F051FD1C2001
:101B20008DF8000000208DF8010003208DF80200E0
:101B300001208DF80300684600F047FD08BD0EB592
:101B40000121102001F0D8F82C4801F033F94FF6AC
:101B5000FF70ADF8040040F26710ADF800000020FF
:101B6000ADF80600ADF802006946244801F0F6F928
:101B70000121224801F0DEFF012211461F4801F039
:101B800042FD0EBD0EB50121202001F0B5F841F255
:101B90008730ADF804004720ADF800000020ADF814
:101BA0000600ADF802006946154801F0D7F9012199
:101BB000134801F0D3FF01221146114801F023FD23
:101BC00001210F4801F0F9FC0EBD08B500214FF0CE
:101BD000006000F035FD4FF4A06000F0F1FC37200C
:101BE0008DF8000000208DF801008DF80200012022
:101BF0008DF80300684600F0E8FC08BD00100040C6
:101C00000014004008B50121082001F068F8012106
:101C1000480501F071F8C020ADF8000003208DF8F0
:101C200002001C208DF803006946FA4800F0A4FD6C
:101C300008BD1FB50020ADF804004BF6FF70ADF8ED
:101C400006000A20ADF808004FF48060ADF80A00E5
:101C50000001ADF80C00F04800906946EF4802F032
:101C6000A0F90121ED4802F01AFA1FBD10B5FFF7E7
:101C7000C9FFFFF7DEFF10BD10B5002400BF012132
:101C8000E64802F030FA1421E44802F08EFA0446E5
:101C90000022D021E14802F07FFA1421DF4802F04F
:101CA00084FA10F0020FEAD0DD49DC4802F031FB83
:101CB0000121DA4802F023FA10BD70B504460E4641
:101CC000154600BF4FF40031D44802F00DFB002848
:101CD000F8D10121D14802F006FA00BFD149CF481E
:101CE00002F0E0FA0028F9D00022D021CB4802F01F
:101CF00053FA00BFCC49C94802F0D4FA0028F9D001
:101D00003146C64802F042FA00BFC749891CC348A1
:101D100002F0C8FA0028F8D00CE02178BF4802F0A1
:101D200035FA641C00BFC049891CBC4802F0BAFAED
:101D30000028F8D02800A5F10101CDB2EDD1012194
:101D4000B64802F0DCF970BD2DE9F04707460D46B4
:101D500014464FF00008C146C24600262846E9173F
:101D600005EB5171C910A5EBC10101F0FF0ACAF1E1
:101D70000800C6B22046E11704EB5171C1F3C70851
:101D8000E11704EB5171C910A4EBC10101F0FF0987
:101D9000BAF1000F28D1B8F1000F07D14A46294601
:101DA0003846FFF78AFFFFF767FF60E00AE0082286
:101DB00029463846FFF781FFFFF75EFF05F108006F
:101DC000C5B208375FEA0800A8F1010101F0FF0879
:101DD000EDD1B9F1000F4AD04A4629463846FFF7FF
:101DE0006CFFFFF749FF42E0B8F1000F07D14A4608
:101DF00029463846FFF761FFFFF73EFF37E0A01B9B
:101E000084B22046E11704EB5171C1F3C708E11712
:101E100004EB5171C910A4EBC10101F0FF094EB1EF
:101E2000324629463846FFF748FFFFF725FFA81935
:101E3000C5B237440AE0082229463846FFF73DFF7D
:101E4000FFF71AFF05F10800C5B208375FEA08007E
:101E5000A8F1010101F0FF08EDD1B9F1000F06D0A2
:101E60004A4629463846FFF728FFFFF705FFBDE839
:101E7000F08770B504460D460121684802F033F939
:101E800000BF6849654802F00DFA0028F9D0002229
:101E9000D021624802F080F900BF63495F4802F038
:101EA00001FA0028F9D029465C4802F06FF900BF1A
:101EB0005D49891C594802F0F5F90028F8D02146FF
:101EC000564802F063F900BF5749891C534802F095
:101ED000E9F90028F8D00121504802F010F970BD4E
:101EE00070B505460E46144600BF4FF400314B480E
:101EF00002F0FAF90028F8D10121484802F0F3F87D
:101F000000BF4849454802F0CDF90028F9D0002229
:101F1000D021424802F040F900BF43493F4802F057
:101F2000C1F90028F9D001213C4802F0B8F8314647
:101F30003A4802F02BF900BF3B49891C374802F0B0
:101F4000B1F90028F8D00121344802F0CCF800BFE4
:101F50003449324802F0A6F90028F9D00122D021F4
:101F60002E4802F019F900BF2E49491C2B4802F0F7
:101F700099F90028F8D016E0012C07D10021274854
:101F800002F0C9F80121254802F0B9F825493F318E
:101F9000224802F087F930B1204802F0F9F82870A1
:101FA0006D1C601E84B2002CE6D101211B4802F09A
:101FB000B2F870BD10B51DA006F0B8FA002413E009
:101FC0001E490C550846015D1DA006F0AFFAE11749
:101FD00004EB11710911A4EB01110F2902D11AA010
:101FE00006F0A4FA601C84B2FF2CE9DD4FF4807285
:101FF00000211248FFF7A8FE14A006F097FA16A0D9
:1020000006F094FA4FF4807200211748FFF768FF3A
:1020100000244FE0000C0140801A060000540040EC
:10202000000400100100030082000700D0B4C8EBD8
:10203000B5C4CAFDBEDD0A0D0000000098010020F5
:1020400030782530325820000A0D00000A0DD0B437
:10205000B3C9B9A60A0D00000A0DB6C1B3F6B5C4DE
:10206000CAFDBEDD0A0D0000980200201548005D83
:102070001549095D884209D01248015DAFF2400060
:1020800006F054FA11A006F051FA10BD0D48015D9A
:10209000AFF2540006F04AFAE11704EB117109118E
:1020A000A4EB01110F2903D1AFF2640006F03EFA50
:1020B000601C84B2FF2CD9DD0EA006F037FA00BFF9
:1020C000E3E700009802002098010020B4EDCEF371
:1020D0003A49324320454550524F4DD0B4C8EBD316
:1020E000EBB6C1B3F6B5C4CAFDBEDDB2BBD2BBD63A
:1020F000C20A0D0049324328415432344330322958
:10210000B6C1D0B4B2E2CAD4B3C9B9A60A0D0000B0
:1021100070B504460D4621462846FFF7AAFE70BD5D
:1021200070B504460D461646324621462846FFF74E
:10213000D7FE70BD70B50024002500BF06E0002565
:1021400000E06D1CB5F57A7FFBDB641CB4F57A7F8B
:10215000F5DB00216B20FFF7DBFF07211920FFF7DC
:10216000D7FF06211A20FFF7D3FF01211C20FFF71C
:10217000CFFF18211B20FFF7CBFF70BD08B5002053
:102180000090012269467520FFF7CAFF9DF80010F4
:102190003DA006F0CBF908BD1CB5044606226946F1
:1021A0003B20FFF7BDFF9DF801009DF8001040EABD
:1021B000012000B220809DF803009DF8021040EA43
:1021C000012000B260809DF805009DF8041040EAEF
:1021D000012000B2A0801CBD1CB504460622694641
:1021E0004320FFF79DFF9DF801009DF8001040EA95
:1021F000012000B220809DF803009DF8021040EA03
:10220000012000B260809DF805009DF8041040EAAE
:10221000012000B2A0801CBD38B5044602226946E8
:102220004120FFF77DFF9DF801009DF8001040EA76
:10223000012000B2208038BD2DE9F84F82460222ED
:1022400069464120FFF76CFF9DF801009DF80010E2
:1022500040EA01200FFA80FB43F29030584405F029
:102260006EFF804600220A4B05F0F1FE0646002272
:10227000084B05F075FE044605F072FF00B2AAF89F
:102280000000BDE8F88F000025640D0A0000000082
:102290000080714000002A402DE9F04105460C46BF
:1022A000AD480168204605F040FD0746AB4905F002
:1022B00042FD0646AA480168304605F0E4FCA849FC
:1022C0000860A8484168A84805F02FFD0646A548C3
:1022D0008168304605F029FDA4490860A148C0681E
:1022E00080F0004048609F48C06880F000408860EF
:1022F0009F48C8600868994905F01DFD0646994841
:102300000168304605F0BFFC964908609749486867
:10231000924905F010FD064692484168304605F0A6
:10232000B2FC90494860914988688C4905F003FDEA
:1023300006468C488168304605F0A5FC89498860CE
:102340008A49C868854905F0F6FC06468548C16893
:10235000304605F098FC8349C860814801682846EA
:1023600005F0E3FC834908607E4801684FF07E5029
:1023700005F0E1FC804908607A4881684FF07E50A2
:1023800005F0D9FC7D4908607B4801684FF07E501C
:1023900005F0D1FC06464FF07C5105F074FC7849FD
:1023A0000860084601687448006805F0FAFC754941
:1023B0000860734801687148006805F0F2FC7249D2
:1023C00008606D48006871490860664841684FF0D0
:1023D0007E5005F0B0FC6E4908606C4801686948A1
:1023E000006805F0A8FC06465E480168304605F026
:1023F0009FFC5C490860664801686248006805F017
:102400009AFC064657484168304605F091FC55490C
:1024100048605E4801685C48006805F08CFC064630
:1024200050488168304605F083FC4E498860584822
:1024300001685548006805F07EFC06464948C168B9
:10244000304605F075FC4749C8604A4801684D4868
:10245000006805F070FC064641480168304605F00A
:1024600012FC3F490860434801684748006805F08E
:1024700062FC064638480168304605F004FC3649DF
:10248000086008460168204605F04FFC4149086095
:10249000BDE8F0812DE9F05F02223B213E48FFF7C5
:1024A0001FFD3D4949783C4A127801EB022108B2F0
:1024B00005F03CFE3949086039493848006805F0A4
:1024C000E2FB04464FF08D4105F06BFC3549086096
:1024D0000846006805F063FE04464FF03332324B85
:1024E00005F044FD80460022304B05F03FFD0646D6
:1024F0002F4A304B05F0ABFD824605F07BFE2949A3
:102500000860022245212448FFF7EAFC2249497865
:10251000214A127801EB022108B205F007FE1D499D
:10252000086025491B48006805F0ADFB804605F0B2
:1025300036FE06464FF06632204B05F088FD044615
:1025400005F058FE13490860084601681548006800
:10255000FFF7A2FEBDE8F09F900000200AD7A33B42
:10256000D8000020B40000206F12833A98030020A6
:10257000A69B443B94000020980000209C00002073
:10258000A0000020A4000020A8000020AC00002033
:10259000B0000020C8000020C4000020D0000020AF
:1025A00000005C43D40000203333F33F00806640DA
:1025B0001F85EB51B81E094000009041666630400F
:1025C00036490143364A1160704770B50021002337
:1025D0000F22C4784CB3324C246804F4E064C4F590
:1025E000E0644FEA1421C1F1040322FA01F24478B5
:1025F00004FA03F1847804EA020444EA01014FEA90
:102600000111284C0678A155047804F01F054FF0FD
:10261000010404FA05F405784FEA65154FF0E02649
:1026200006EB8505C5F8004109E0047804F01F05B4
:102630000124AC401C4D0678761145F8264070BD4B
:102640001A4A0A4002431A4B1A60704741B1194AAC
:10265000126842EA00024FF0E023C3F8102D07E0B1
:10266000144A126822EA00024FF0E023C3F8102D4A
:102670007047042808D14FF0E021096941F00401B6
:102680004FF0E022116107E04FF0E021096921F0ED
:1026900004014FF0E0221161704700000000FA05CC
:1026A0000CED00E000E400E080E100E080FFFF1FAF
:1026B00008ED00E010ED00E010B50446CA48844281
:1026C00008D10121042000F024FB0021042000F0A7
:1026D00020FB46E0C548844208D10121082000F0D3
:1026E00018FB0021082000F014FB3AE0C0488442A7
:1026F00008D10121102000F00CFB0021102000F077
:1027000008FB2EE0BB48844208D10121202000F0C4
:1027100000FB0021202000F0FCFA22E0B6488442B1
:1027200008D10121402000F0F4FA0021402000F0FF
:10273000F0FA16E0B148844208D10121802000F06F
:10274000E8FA0021802000F0E4FA0AE0AC48844274
:1027500007D10121801500F0DCFA0021A01500F05E
:10276000D8FA10BD10B50121084600F0D2FA0021B8
:10277000012000F0CEFA10BD2DE9F04102460025FF
:102780000026002000230024002791F803C00CF04D
:102790000F0591F803C01CF0100F03D091F802C090
:1027A0004CEA0505B1F800C01CF0FF0F31D01468E9
:1027B00000202BE04FF0010C0CFA00F3B1F800C040
:1027C0000CEA03069E4220D183004FF00F0C0CFA56
:1027D00003F7BC4305FA03FC4CEA040491F803C078
:1027E000BCF1280F06D14FF0010C0CFA00FCC2F826
:1027F00014C00AE091F803C0BCF1480F05D14FF0B6
:10280000010C0CFA00FCC2F810C0401C0828D1D3FF
:102810001460B1F800C0BCF1FF0F34DD5468002033
:102820002EE000F1080C4FF0010808FA0CF3B1F8A3
:1028300000C00CEA03069E4221D183004FF00F0C2A
:102840000CFA03F7BC4305FA03FC4CEA040491F8C4
:1028500003C0BCF1280F05D100F1080C08FA0CF8F0
:10286000C2F8148091F803C0BCF1480F07D100F101
:10287000080C4FF0010808FA0CF8C2F81080401C50
:102880000828CED35460BDE8F0814FF6FF71018077
:10289000022181700421C1707047024600209368B4
:1028A0000B4201D0012000E00020704701468868FB
:1028B00080B2704702460020D3680B4201D001204D
:1028C00000E0002070470146C86880B2704701618F
:1028D0007047416170470AB1016100E04161704792
:1028E000C16070474FF480320A4382618161826126
:1028F00082698269704702460020424B18684FF691
:102900008073184040EA021008433E4B186070473D
:102910003D49C8617047F0B50A46002300240021F4
:10292000002500F00046B6F1004F02D1354EF169A6
:1029300001E0344E7168C0F3034583B200F44016E1
:10294000B6F5401F08D121F070612E4E766826F052
:1029500070662C4F7E6012E000F48016B6F5801F82
:1029600006D1032606FA05F4A14341F0706106E0A2
:10297000460D360103FA06F6B14341F0706122B10B
:10298000460D360103FA06F6314300F00046B6F173
:10299000004F02D11B4EF16101E01A4E7160F0BD93
:1029A00030B500228B071C0F0F2303FA04F2154BDE
:1029B00008338C1053F824309343124C08348D1094
:1029C00044F8253023468C1053F824308C07240F0C
:1029D00000FA04F423430B4C08348D1044F82530DE
:1029E00030BD0A490860704700080140000C0140F2
:1029F000001001400014014000180140001C01407B
:102A0000002001400000014000002042DC00204284
:102A1000DB48006840F00100D9490860084640687A
:102A2000D8490840D649486008460068D649084059
:102A3000D34908600846006820F4802008600846F2
:102A4000406820F4FE0048604FF41F008860704723
:102A5000CB49096821F48031C94A116011460968DF
:102A600021F480211160B0F5803F03D0B0F5802FB4
:102A70000ED106E0C249096841F48031C04A1160B4
:102A800007E0BF49096841F4A021BD4A116000E098
:102A900000BF00BF704710B5014600220023002090
:102AA0004A11012A02D1B64C236806E0022A02D15B
:102AB000B34C236A01E0B24C636A01F01F020124A7
:102AC00094401C4201D0012000E0002010BD70B5F0
:102AD00000240025002600BF3120FFF7DCFF06465A
:102AE000641CB4F5A06F01D0002EF5D03120FFF7A3
:102AF000D2FF08B1012500E00025284670BD01463F
:102B000000209F4A106820F0F80040EAC1001060E1
:102B100070479E490860704702460020984B5868ED
:102B200020F47C1042EA01031843954B586070472B
:102B300096490866704701460020914A506820F087
:102B400003000843506070478D48406800F00C0057
:102B50007047014600208A4A506820F0F000084380
:102B60005060704701460020854A506820F4E060BC
:102B700008435060704701460020814A506820F4A5
:102B8000605040EAC1005060704729B17C4A527AD7
:102B900002437B4B5A7206E0794A527AC343DBB256
:102BA0001A40774B5A72704779490860704701465E
:102BB0000020734A506820F440400843506070473A
:102BC0000021744A11706E4A82F82010012802D048
:102BD000042808D103E001216E4A117004E00521A8
:102BE0006C4A117000E000BF00BF70476A4908607E
:102BF00070476349096A0143614A11627047674936
:102C00000860704730B500210022002400235C4D8D
:102C10006D6805F00C0121B1042905D0082923D1E4
:102C200005E05F4D056022E05D4D05601FE0544DFD
:102C30006D6805F47012524D6D6805F480340225FC
:102C400005EB92421CB9574D554305600BE04C4DC6
:102C50006D6815F4003F03D0524D5543056002E006
:102C60004F4D5543056002E04D4D056000BF00BF6C
:102C7000434D6D6805F0F00109094B4D6B5C05682B
:102C8000DD4045603E4D6D6805F4E061090A464D42
:102C90006B5C4568DD408560394D6D6805F46051B9
:102CA000C90A414D6B5C4568DD40C560344D6D68B7
:102CB00005F44041890B3D4D6B5CC568B5FBF3F5F0
:102CC000056130BD29B12E4A526902432C4B5A612D
:102CD00004E02B4A52698243294B5A61704729B15B
:102CE000274A92690243264B9A6104E0244A92697A
:102CF0008243234B9A61704729B1214AD26902432A
:102D00001F4BDA6104E01E4AD26982431C4BDA6130
:102D1000704729B11A4AD2680243194BDA6004E0BD
:102D2000174AD2688243164BDA60704729B1144AB9
:102D300012690243124B1A6104E0114A126982437C
:102D40000F4B1A6170471A49086070470F49C864F1
:102D500070470B49C87170470948406A40F080705D
:102D600007494862704701460020054A92680A42B6
:102D700001D0012000E000207047014988727047AF
:102D8000001002400000FFF8FFFFF6FE0000424284
:102D9000D800424220100240800442423C04424299
:102DA00000127A0000093D00DC000020EC00002049
:102DB0004004424210B50446FF48844208D1012134
:102DC000C014FFF7A6FF0021E014FFF7A2FFC4E044
:102DD000B4F1804F08D101210846FFF7A7FF002179
:102DE0000120FFF7A3FFB8E0F448844208D1012195
:102DF0000220FFF79BFF00210220FFF797FFACE0C6
:102E0000EF48844208D101210420FFF78FFF002101
:102E10000420FFF78BFFA0E0EA48844208D101219B
:102E20000820FFF783FF00210820FFF77FFF94E0D1
:102E3000E548844208D101211020FFF777FF0021E7
:102E40001020FFF773FF88E0E048844208D1012199
:102E50002020FFF76BFF00212020FFF767FF7CE0B9
:102E6000DB48844208D101214014FFF752FF0021C2
:102E70006014FFF74EFF70E0D648844209D101216B
:102E8000C804FFF746FF00214FF40020FFF741FF81
:102E900063E0D148844209D101210805FFF739FFD9
:102EA00000214FF48010FFF734FF56E0CB488442F6
:102EB00009D101214805FFF72CFF00214FF4001034
:102EC000FFF727FF49E0C648844208D1012140208E
:102ED000FFF72CFF00214020FFF728FF3DE0C1480D
:102EE000844208D101218020FFF720FF00218020AB
:102EF000FFF71CFF31E0BC48844208D10121801556
:102F0000FFF714FF0021A015FFF710FF25E0B748D9
:102F1000844209D101210804FFF7FBFE00214FF490
:102F20008030FFF7F6FE18E0B148844209D1012154
:102F30004804FFF7EEFE00214FF40030FFF7E9FEF2
:102F40000BE0AC48844208D101218804FFF7E1FE80
:102F500000214FF48020FFF7DCFE10BD0022028824
:102F6000954B98420ED09A4B98420BD0B0F1804FBF
:102F700008D0924B984205D0914B984202D0914B89
:102F8000984204D14FF68F731A404B881A438E4BE8
:102F9000984207D08D4B984204D04FF6FF431A4019
:102FA000CB881A4302808B8883850B880385824BEC
:102FB00098420BD0864B984208D08C4B984205D053
:102FC0008B4B984202D08B4B984201D10B7A0386EF
:102FD00001238382704770B5002400220023058CF2
:102FE0004FF6FE7635400584028C8388048B4FF6BD
:102FF0008F752C40B51E2C400D882C43751E2A4021
:103000000D892A434D882A436B4DA8420BD0704D41
:10301000A84208D0754DA84205D0754DA84202D0EF
:10302000744DA84213D14FF6F7752A404D892A43B3
:103030004FF6FB752A408D882A434FF6FF652B40DB
:103040004FF6FF552B408D892B43CD892B43838031
:103050000483CD888586028470BD70B5002400226B
:103060000023058C4FF6EF7635400584028C83886B
:10307000048B48F6FF752C404FF6FF452C400D8819
:103080002D0644EA15444FF6DF752A400D892D05BB
:1030900042EA15424D882D0542EA1542464DA842A6
:1030A00002D04B4DA8421BD14FF67F752A404D8967
:1030B0002D0542EA15424FF6BF752A408D882D0531
:1030C00042EA15424FF6FF352B404FF2FF752B4079
:1030D0008D89AD0443EA1543CD89AD0443EA154318
:1030E00083800483CD880587028470BD70B5002479
:1030F00000220023058C4FF6FF6635400584028CC4
:103100008388848B4FF68F752C404FF6FC752C40CE
:103110000D882C434FF6FF552A400D892D0642EAB3
:1031200015424D882D0642EA1542234DA84202D091
:10313000274DA8421BD14FF2FF752A404D892D061D
:1031400042EA15424FF6FF352A408D882D0642EAA5
:1031500015424EF6FF752B404DF6FF752B408D89BD
:103160002D0543EA1543CD892D0543EA1543838098
:103170008483CD888587028470BD70B500220023CA
:103180000024058C4EF6FF7635400584038C848838
:10319000828B48F6FF752A404FF6FF452A400D887E
:1031A0002D0642EA15424DF6FF752B400D892D077D
:1031B00043EA15434D881FE0002C01400004004005
:1031C00000080040000C00400010004000140040C7
:1031D00000340140004C01400050014000540140C7
:1031E00000180040001C004000200040004001404A
:1031F00000440140004801402D0743EA1543F94DC2
:10320000A84202D0F84DA84206D14BF6FF752C40DB
:103210008D89AD0544EA154484808283CD88A0F869
:103220004050038470BD828B4FF2FF331A4082837B
:10323000828B0B0642EA134282837047F0B50C463C
:103240001546002200210026078C4EF6FF7C07EA77
:103250000C070784828B018C27073E0C40F6FF4742
:103260003A402F0642EA17421F0742EA1742DD4F53
:10327000B8420ED0DC4FB8420BD0B0F1804F08D02E
:10328000DA4FB84205D0DA4FB84202D0D94FB8422F
:1032900006D14DF6FF77394046F48057394305E0B3
:1032A00047F6FF57394044F48057394382830184FD
:1032B000F0BD828B4FF6F3731A408283828B0A43F0
:1032C00082837047F0B50C46154600220021002687
:1032D000078C4FF6FF6C07EA0C070784828B018C82
:1032E00027063E0C4FF60C773A401F0545EA174774
:1032F0003A43BC4FB8420ED0BB4FB8420BD0B0F1EE
:10330000804F08D0B94FB84205D0B94FB84202D06B
:10331000B84FB84206D14FF6FF57394046F4807790
:10332000394305E04FF2FF57394044F48077394381
:1033300082830184F0BD028B4FF2FF331A40028377
:10334000028B0B0642EA134202837047F0B50C462B
:103350001546002200210026078C4FF6EF7C07EA75
:103360000C070784028B018C27053E0C40F6FF47B3
:103370003A401F0742EA17422F0642EA1742994F86
:10338000B8420ED0984FB8420BD0B0F1804F08D061
:10339000964FB84205D0964FB84202D0954FB842EA
:1033A00006D14FF6DF77394046F01007394305E084
:1033B0004FF65F77394044F01007394302830184A8
:1033C000F0BD028B4FF6F3731A400283028B0A435F
:1033D00002837047F0B50C46154600220021068C8A
:1033E0004FF6FE773E400684028B018C4FF60C763A
:1033F00032401E0545EA164632437A4EB0420ED0A0
:10340000794EB0420BD0B0F1804F08D0774EB04229
:1034100005D0774EB04202D0764EB04206D14FF67C
:10342000FD76314044F00106314305E04FF6F57674
:10343000314044F00106314302830184F0BD70B590
:1034400005460C46674885420ED0674885420BD03A
:10345000B5F1804F08D06548854205D06448854263
:1034600002D06448854200D100E000BF208850B9F6
:103470002389A28861882846FFF7ACFFE1882846A7
:10348000FFF79FFF25E0208804280AD12389A2881E
:1034900061882846FFF75AFFE1882846FFF74BFF6F
:1034A00017E0208808280AD12389A2886188284645
:1034B000FFF708FFE1882846FFF7FBFE09E02389B4
:1034C000A28861882846FFF7B9FEE1882846FFF701
:1034D000AAFE70BD2DE9F04105460C4600260127E5
:1034E000608808B9022600E00026A088012801D1E2
:1034F000022700E001272088A0B92389A2886188DB
:103500002846FFF767FFE1882846FFF75AFF23891F
:103510003A4631462846FFF719FFE1882846FFF76B
:103520000AFF13E02389A28861882846FFF70EFF6F
:10353000E1882846FFF7FFFE23893A4631462846B0
:10354000FFF748FFE1882846FFF73BFFBDE8F08121
:103550000A884B881A438B881A43CB881A430B89F5
:103560001A434B891A438B891A43A0F844207047A9
:103570004FF6FF71818000210180C180418001727E
:1035800070470021018041808180C180018141819B
:103590008181C181704700210180418001218180AA
:1035A0000021C1800181704700210180418081801C
:1035B000C180018141818181704721B1028842F03F
:1035C0000102028004E002884FF6FE731A40028076
:1035D000704789B1B0F8442042F40042A0F844207A
:1035E00010E00000002C01400034014000040040C5
:1035F00000080040000C0040B0F84420C2F30E0266
:10360000A0F84420704710B51AB183890B43838119
:1036100004E08389CC43A4B22340838110BD81821E
:10362000704741EA0203A0F84830704710B51AB15C
:1036300083890B43838104E08389CC43A4B2234074
:10364000838110BD01894FF6F872114001817047E6
:103650000A46002101894FF68F73194011430181F9
:10366000704730B504460D4629462046FFF7F0FF67
:10367000208940F00700208130BD2DE9F04104464B
:103680000D4616461F46602D06D13B4601223146A7
:103690002046FFF75BFE05E03B460122314620460F
:1036A000FFF798FE29462046FFF7D2FF208940F019
:1036B00007002081BDE8F08130B50C46002101896A
:1036C000C9B21D0642EA154525432943018130BD93
:1036D0002DE9F04105460E4617469846002443461C
:1036E0003A4631462846FFF7E7FF2C894FF6F87136
:1036F0000C4044F007044FF68F710C4044F0700406
:103700002C81BDE8F081F0B504460D4616461F46F3
:103710003B46324629462046FFF7CEFF208940F43B
:1037200080402081F0BD0185828270470A460021D9
:1037300001884FF68F731940114301807047F0B52F
:103740000C4615461E460021002200230189028BEB
:10375000038C4FF6F877394021434FF6FC473A4047
:1037600040F201173A434FF6DD773B40370545EA13
:1037700017473B43018102830384F0BD0A460021C1
:10378000018B4FF68F7319401143018370470A462E
:103790000021018B48F6FF731940130641EA1341DB
:1037A000018370470A460021818B4FF68F731940C1
:1037B0001143818370470A460021818B48F6FF73CD
:1037C0001940130641EA13418183704721B10288F1
:1037D00042F08002028004E002884FF67F731A40B4
:1037E0000280704721B1828842F00402828004E0A6
:1037F00082884FF6FB731A408280704721B182881D
:1038000042F00802828004E082884FF6F7731A4083
:103810008280704721B1828842F00102828004E0F8
:1038200082884FF6FE731A40828070470A46002154
:10383000018B4FF6F77319401143018370470A4615
:103840000021018B4FF2FF731940130641EA134127
:10385000018370470A460021818B4FF6F7731940A8
:103860001143818370470A460021818B4FF2FF7319
:103870001940130641EA1341818370470A4600212B
:10388000018B4FF6FB7319401143018370470A46C1
:103890000021018B4FF6FF331940130641EA134113
:1038A000018370470A460021818B4FF6FB73194054
:1038B0001143818370470A460021818B4FF6FF3305
:1038C0001940130641EA1341818370470A460021DB
:1038D000018B4FF67F7319401143018370470A46ED
:1038E0000021018BC1F30E01130641EA134101834C
:1038F00070470A460021818B4FF67F7319401143B0
:10390000818370470A460021818BC1F30E011306A3
:1039100041EA1341818370470A460021018C4FF62A
:10392000FD7319401143018470470A460021018C40
:103930004FF6F77319401143018470470A4600217E
:10394000018C4FF6DF731940130541EA13410184DE
:1039500070470A460021018C4FF67F73194013050A
:1039600041EA1341018470470A460021018C4FF659
:10397000FF531940130641EA1341018470470A4678
:103980000021018C4FF2FF731940130641EA1341E5
:10399000018470470A460021018C4DF6FF731940DF
:1039A000130741EA13410184704730B50023012415
:1039B0008C40A3B2048CDD43ADB22C400484048C53
:1039C00002FA01F5ADB22C43048430BD30B50023BA
:1039D00004248C40A3B2048CDD43ADB22C4004849B
:1039E000048C02FA01F5ADB22C43048430BD70B5ED
:1039F0000346002000241846183001258D40ACB243
:103A00001D8CE643B6B235401D8409B1082909D1A1
:103A100000EB6100056825F0700505600568154339
:103A200005600CE00D1FADB200EB6500056825F4E4
:103A3000E04505600568160645EA1645056070BD57
:103A400021B1028842F00202028004E002884FF6AF
:103A5000FD731A400280704721B1028842F00402CF
:103A6000028004E002884FF6FB731A400280704720
:103A700021B1828842F08002828004E082884FF681
:103A80007F731A408280704702884FF6F7731A409E
:103A9000028002880A430280704782884FF68F7343
:103AA0001A40828082880A438280704702894FF6DA
:103AB000F8731A40028102890A4302817047028921
:103AC0004FF67F731A40028102890A4302817047D0
:103AD0008184704781857047818670470187704770
:103AE00081877047A0F84010704702884FF6FF4367
:103AF0001A40028002880A43028070470146888E7D
:103B000070470146088F70470146888F704701460D
:103B1000B1F8400070470146888C70470146088D17
:103B2000704702460020138A0B4201D0012000E0BA
:103B300000207047CA430282704730B50246002019
:103B400000230024158A05EA0103958905EA01048A
:103B500013B10CB1012000E0002030BDCA43028245
:103B60007047000010B50446FC48844209D1012189
:103B70008803FFF7CEF800214FF48040FFF7C9F823
:103B800032E0F748844209D101214804FFF7CEF81A
:103B900000214FF40030FFF7C9F825E0F1488442D6
:103BA00009D101218804FFF7C1F800214FF48020DA
:103BB000FFF7BCF818E0EC48844209D10121C804A1
:103BC000FFF7B4F800214FF40020FFF7AFF80BE047
:103BD000E648844208D101210805FFF7A7F8002133
:103BE0004FF48010FFF7A2F810BD2DE9F04786B022
:103BF00005460E460024A24600BFA1460027B08914
:103C000000B100BF2F462C8A4CF6FF700440F088AC
:103C100004432C82AC894EF6F3100440B0883189FD
:103C20000843718908430443AC81AC8A4FF6FF40D6
:103C30000440B0890443AC8201A8FEF7E3FFC74803
:103C4000874202D1DDF810A001E0DDF80CA0A889C0
:103C500010F4004F08D00AEBCA0000EB0A103168DC
:103C60004900B0FBF1F807E00AEBCA0000EB0A10CC
:103C700031688900B0FBF1F86420B8FBF0F0040172
:103C80002009642101FB1089A88910F4004F08D095
:103C9000322000EBC900B0FBF1F000F00700044354
:103CA00008E0322000EB09106421B0FBF1F000F0D5
:103CB0000F0004432C8106B0BDE8F0874FF4165185
:103CC000016000218180C18001810C21418100219E
:103CD0008181704710B502460020108A4FF2FF0321
:103CE00018400B884C8823438C882343CC8823437B
:103CF0001843108210BD0021018041808180C18065
:103D0000704721B1828942F40052828104E08289A5
:103D10004DF6FF731A4082817047F0B503460024C8
:103D2000002600250020A1F510676A3F00D100BFE2
:103D30001846C1F3421401F01F06012707FA06F5E1
:103D4000012C01D10C3004E0022C01D1103000E034
:103D500014301AB107682F43076002E00768AF43C9
:103D60000760F0BD10B51AB1838A0B43838204E06B
:103D7000838ACC43A4B22340838210BD028A4FF6CB
:103D8000F0731A400282028A0A43028270478289D3
:103D90004FF2FF731A40828182890A438281704701
:103DA00021B1828942F00202828104E082894FF6C9
:103DB000FD731A4082817047028A4FF6DF731A4002
:103DC0000282028A0A430282704721B1028A42F4C7
:103DD0008042028204E0028A4BF6FF731A4002829C
:103DE0007047C1F308028280704701468888C0F39B
:103DF00008007047818941F0010181817047028B81
:103E0000D2B20283028B42EA012202837047028B04
:103E100002F47F420283028B0A430283704721B17E
:103E2000828A42F02002828204E0828A4FF6DF73A7
:103E30001A408282704721B1828A42F01002828247
:103E400004E0828A4FF6EF731A408282704721B1F4
:103E5000828A42F00802828204E0828A4FF6F77377
:103E60001A408282704721B1828942F400428281E5
:103E700003E08289C2F30E028281704721B1828AF7
:103E800042F40062828204E0828A4FF2FF731A4099
:103E900082827047828A4FF6FB731A408282828A3E
:103EA0000A438282704721B1828A42F002028282F2
:103EB00004E0828A4FF6FD731A4082827047024600
:103EC0000020B1F5007F00D100BF13880B4201D064
:103ED000012000E00020704701F40072B2F5007F7D
:103EE00000D100BFCA430280704770B5024600246B
:103EF000002300250020A1F510666A3E00D100BF16
:103F0000C1F3421501F01F03012606FA03F3012D48
:103F100002D19689334006E0022D02D1168A334041
:103F200001E0968A33400C12012606FA04F4168842
:103F3000344013B10CB1012000E0002070BD10B579
:103F400000220023A1F510646A3C00D100BF0A12D0
:103F500001249440A3B2DC43048010BD003801402A
:103F60000044004000480040004C00400050004029
:103F700010B50446F648844209D101214805FEF7F0
:103F8000D5FE00214FF40010FEF7D0FE08E001211D
:103F90008805FEF7CBFE00214FF48000FEF7C6FE39
:103FA00010BD2DE9F04385B004460D460026B1460C
:103FB0000427DFF8A083A6884FF6C0710E4068463C
:103FC000FEF720FEDDF80880E348B8FBF0F01FFAAA
:103FD00080F946EA0906A68020884FF6FE7108405F
:103FE00020800026DD49286888420CD828684000D7
:103FF000B8FBF0F087B2042F00DA04273E4309F142
:104000000100208427E0E888A0F53F41FF3906D170
:10401000286800EB4000B8FBF0F087B209E02868A0
:1040200000EBC00101EB0010B8FBF0F087B247F4E1
:1040300080473805000D01D147F0010747F40040E3
:1040400006434FF4967009FB00F04FF47A7190FB31
:10405000F1F0401C2084A683208840F001002080DD
:1040600026884FF6F5310E40A88869890843064333
:104070002680A88929890843208105B0BDE8F083FE
:1040800041F288310160002181804BF6FF71C180CF
:104090000021018141814FF480418181704721B12C
:1040A000028842F00102028004E002884FF6FE73AB
:1040B0001A400280704721B1828842F400628280F7
:1040C00004E082884FF2FF731A408280704721B16A
:1040D000828842F48052828004E082884EF6FF7328
:1040E0001A408280704721B1028842F480720280B7
:1040F00004E002884FF6FF631A400280704721B146
:10410000028842F40072028004E002884FF6FF53F6
:104110001A400280704721B1028842F48062028016
:1041200004E002884FF6FF331A40028070470A46C7
:10413000002181894FF60173194002F0FE031943F3
:104140008181704721B1828942F00102828104E0BD
:1041500082894FF6FE731A408281704721B102882E
:1041600042F04002028004E002884FF6BF731A401A
:104170000280704710B51AB183880B43838004E036
:104180008388CC43A4B22340838010BD0182704752
:104190000146088AC0B2704712B141F0010102E045
:1041A0004FF6FE7319400182704702460023134602
:1041B0000B441888704721B1028842F40042028003
:1041C00003E00288C2F30E0202807047B1F5006F6F
:1041D00004D1028842F40062028004E002884FF2B7
:1041E000FF731A4002807047B1F5005F04D1028866
:1041F00042F40052028004E002884DF6FF731A4038
:104200000280704721B1028842F48052028004E0AB
:1042100002884EF6FF731A4002807047B1F5006FB6
:1042200004D1028842F40062028004E002884FF266
:10423000FF731A400280704721B1028842F02002C9
:10424000028004E002884FF6DF731A400280704754
:104250000146088B0012704721B1028842F010021B
:10426000028004E002884FF6EF731A400280704724
:1042700021B9028842F08002028004E002884FF6F1
:104280007F731A4002807047B1F5804F05D0828B52
:104290004BF6FF731A40828303E0828B42F4804224
:1042A0008283704770B50246002400250023002059
:1042B000958A138B1B0445EA030626F07F4404EA23
:1042C00001068E4201D1012000E0002070BD10B532
:1042D00001460020002300228B8A0A8B120443EA45
:1042E000020424F07F4010BD30B5034600200024B6
:1042F00000221A460C0F21F07F410CB1143201E06C
:10430000090C183215680D4201D0012000E0002090
:1043100030BD002221F07F42D3438382704730B505
:10432000024600200023948801F0E06504EA15436A
:1043300021F07F41948A0C4202D00BB1012000E0B1
:10434000002030BD002221F07F42D343838270479A
:104350000054004000127A0040420F00A086010085
:1043600000210020674A126842F48032654B1A60CF
:1043700000BF644A126802F40030491C10B9B1F55C
:10438000A06FF6D15F4A126812F4003F01D00120FD
:1043900000E00020012842D15B4A126842F010027E
:1043A000594B1A601A46126822F003021A601A4624
:1043B000126842F002021A60524A5268514B5A6027
:1043C0001A4652685A601A46526842F480625A602D
:1043D0001A46526822F47C125A601A46526842F415
:1043E000E8125A601A46126842F080721A6000BFE2
:1043F000444A126812F0007FFAD0424A526822F012
:104400000302404B5A601A46526842F002025A6058
:1044100000BF3C4A526802F00C02082AF9D17047EA
:1044200010B5FFF79DFF10BD10B53648006840F08D
:104430000100344908600846406834490840314961
:10444000486008460068324908402E49086008461E
:10445000006820F4802008600846406820F4FE00D0
:1044600048604FF41F008860FFF7DAFF4FF00060EC
:104470002849086010BD10B5002100200022214B02
:104480005B6803F00C0121B1042906D0082928D16A
:1044900007E0214B214C236027E01F4B1F4C23607A
:1044A00023E0184B5B6803F47010164B5B6803F451
:1044B0008032022303EB904022B9194B4343174C3F
:1044C00023600DE00F4B5B6813F4003F04D0144BE6
:1044D0004343124C236003E00F4B43430F4C2360D4
:1044E00003E00D4B0D4C236000BF00BF054B5B6824
:1044F000C3F303130B4CE15C084B1B68CB40074C28
:10450000236010BD00100240002002400000FFF8B0
:10451000FFFFF6FE08ED00E000127A00F000002038
:1045200000093D00F4000020064880470648004787
:10453000FEE7FEE7FEE7FEE7FEE7FEE7FEE7FEE753
:10454000FEE7FEE7294400083101000857488021B2
:1045500002E0491E002204C00029FAD1544A554BFA
:104560001A600022544B1A8070477047704770479A
:1045700070477047704770B5044610464FF080751D
:104580000560051F28462C604C4E051F28462E60EE
:104590004FF01236051F28462E604FF00336051FD8
:1045A00028462E604FF00236051F28462E607610F2
:1045B000051F28462E60051F284629604FF011363A
:1045C000051F28462E604FF01036051F28462E6026
:1045D0004FF00936051F28462E604FF00836051F9C
:1045E00028462E604FF00736051F28462E604FF0F4
:1045F0000636051F28462E604FF00536051F284653
:104600002E604FF00436051F28462E6070BD70479F
:10461000704710B528480088401C27490880084684
:104620000088642803D30020088003F02EFA10BD10
:1046300010B500F04BF8044621480078401C204992
:104640000870204600F046F800F07DFD00F086FC82
:1046500010BD10B500BF03F010FB4FF47A71B0FB32
:10466000F1F4B4F1807F01D301201CE024F07F40FD
:10467000401E4FF0E021486100BF4817002805DACE
:104680000F2000010F490B22885404E00F20000185
:104690000D494A17885400BF00204FF0E02188617F
:1046A0000720086100200028D5D110BDA8030020F4
:1046B000A4050020040100200801002071730008F7
:1046C0002501002018ED00E000E400E0EFF3108089
:1046D00072B6704780F3108870471D484FF0FF0195
:1046E0000170002080F309881A48012101701A48DE
:1046F0004FF08051016062B6FEE717484FF08051DD
:104700000160704714484FF080510160704772B6E5
:10471000EFF3098028B1203880E8F00F0F490968CD
:10472000086000B50E4880475DF804EB0D480E495F
:104730000A78027009480D490A680260106890E81A
:10474000F00F203080F309884EF0040E62B67047F7
:1047500022ED00E03201002004ED00E038010020ED
:104760000F460008270100202801002040010020FA
:104770000146002002E0491C421CD0B20A78002AFF
:10478000F9D170472DE9F04105460E461446002741
:1047900025B9042020700020BDE8F0811EB90C204E
:1047A00020700020F8E7FF48007818B11120207031
:1047B0000020F1E72878012808D0022807D0032834
:1047C00002D0042804D100E000BF00BF00BF03E016
:1047D000012020700020DFE700BFFFF777FF0746CA
:1047E000686930603068FFF7C3FF80463846FFF7DE
:1047F00071FF002020704046CEE72DE9F0410546CC
:104800000E46144600271DB904202070BDE8F08133
:1048100016B90C202070F9E7E248007810B1122098
:104820002070F3E72878012808D0022807D0032851
:1048300002D0042804D100E000BF00BF00BF02E0A6
:1048400001202070E2E700BFFFF740FF07466E61DE
:104850003846FFF73FFF0020207000BFD6E7F0B5D5
:10486000024612F8384F95785678A2F138020B4676
:10487000186819E000F10B073F5D6FEA060C0CF0B9
:10488000FF0C07EA0C0700F10B0C0CF804706746EC
:104890003F5D3FB9877A6FEA050C0CF0FF0C07EA21
:1048A0000C0787721B1D18680028E3D1F0BDBE49B4
:1048B000BE4A1278885CBE49095CBB4A515C01EB78
:1048C000C001BC4A1170704710B50024FFF7FEFE0E
:1048D0000446B4480078F8B9B7480078E0B9FFF763
:1048E000E6FFB648B349097850F82100B44908609A
:1048F000B0480078B349097888420DD0B0480068C4
:10490000C06B401CAE490968C863AF480068401CD2
:10491000AD490860FFF7F1FE2046FFF7DBFE10BD52
:1049200070B501460024A94D2D68EC61A74C2468A0
:1049300021620B4618681BE0A44C246894F8385098
:1049400000F10B04645DA14D2D6895F839502C439E
:104950009E4D2D6895F8386000F10B05AC55847AB2
:104960009A4D2D6895F83A502C4384721B1D186897
:104970000028E1D1954C246894F838208C4CA45C34
:10498000924D2D6895F83950ED43EDB22C40884D8D
:10499000AC542C46A45C54B98C4C246894F83A402E
:1049A000E443E4B2814D2D782C40804D2C7070BDD5
:1049B0002DE9FF4F83B081460E461546109F00201B
:1049C0000090B9F1000F05D104203870002007B025
:1049D000BDE8F08FD9F8000018B904203870002025
:1049E000F5E71EB9042038700020F0E71DB9042057
:1049F00038700020EBE700203060CA46DAF800404B
:104A000015E02078062807D2DFE800F00604050349
:104A1000070807E006E005E000BF00BF012038708E
:104A20000020D4E700BF0AF1040ADAF80040002CA5
:104A3000E7D15C48007818B1022038700020C6E742
:104A40005D48007818B10D2038700020BFE7FFF7EF
:104A50003DFE00900020029083460190CA46DAF89D
:104A6000004066E02078062853D2DFE800F05217B5
:104A70002A035354208960B12089401E208110C62A
:104A800001200290002001C50BF101001FFA80FBFC
:104A900003E0019840F00100019045E0606858B1E2
:104AA000606801C50020606010C6012002900BF113
:104AB00001001FFA80FB03E0019840F00200019022
:104AC00032E0D4F80480B8F81600E8B1D8F8101035
:104AD000081DC8F81000086801C5D8F80810D8F8F3
:104AE0001000884203D1D8F80400C8F81000B8F8C4
:104AF0001600401EA8F8160010C6012002900BF107
:104B000001001FFA80FB03E0019840F004000190CF
:104B10000AE000BF00BF0098FFF7DCFD0020306016
:104B200001203870584652E700BF0AF1040ADAF84B
:104B30000040002C96D10298012808D10020306056
:104B40000098FFF7C7FD0020387058463FE71F4820
:104B5000006890F83400019941F0800108431B4936
:104B6000096881F8340000201849096881F8350087
:104B700016490698096808634846FFF7D1FE009871
:104B8000FFF7A8FDFFF7A0FEFFF7A0FD00900F487C
:104B9000006890F83500D8B1012832D002282FD112
:104BA00017E0000025010020E88D00082901002001
:104BB0002A0100202801002026010020E80A002008
:104BC00040010020270100200C01002038010020B6
:104BD00000BFFE480068C4693CB110C600203060C8
:104BE0000BF101001FFA80FB09E00120F749096879
:104BF00081F835004946F5480068FFF730FE06E0C9
:104C000000BF4946F1480068FFF729FE00BF00BF1A
:104C1000EE48006890F8350020B1012828D002281D
:104C200025D11FE0207806280DD2DFE800F00C0621
:104C300007030D0E002001C510E000BFE348006827
:104C4000406A01C50AE000BF00BF0098FFF742FDBF
:104C500000203060012038705846B8E600BF0020C0
:104C600038700AE0002001C50E20387005E000BF52
:104C7000002001C50A20387000BF00BF0020D349C2
:104C8000096881F83400D149096881F83500CF49B5
:104C90000968C861CD4909680862CC490968486259
:104CA0000098FFF717FD584691E67CB5002514E003
:104CB0006946284602F01DFA064666B9C44850F80F
:104CC000254044B1012C06D0D4E9020100EB81005B
:104CD000A0640198E064681CC5B23F2DE8D97CBD92
:104CE000002400BF02E0C82002F050FBB948007861
:104CF0000028F8D0B84800686421B0FBF1F0B6494C
:104D000008600846006828B90020B4490870FF20F0
:104D100002F03AFA00BFFFF7D9FC0446B048006839
:104D2000B04908600020AE4908602046FFF7D2FC79
:104D3000AC480068A8490968B0FBF1F0C0F1640014
:104D4000A6490870FFF716FCFFF7AFFF642002F0DA
:104D50001DFBE0E700B587B0032300228021A248B5
:104D6000CDE90323CDE901014FF6FE7300933E2305
:104D700000F5FE720021AFF2970001F09FFF06AA36
:104D80009AA13E2002F025F907B000BD002400BF23
:104D900000BFFFF79BFC044691480068401C904907
:104DA00008602046FFF796FCFFF7E2FBF1E700B54D
:104DB00087B00323002280219048CDE90323CDE969
:104DC00001014FF6FF7300933F2300F5FE720021AF
:104DD000AFF2470001F072FF06AA89A13F2002F05E
:104DE000F8F807B000BD04E0002200F8012B4A1ECD
:104DF00091B20029F8D1704770B5F0218448FFF7CF
:104E0000F2FF002411E0601C85B204EB44008049ED
:104E100001EBC00305EB450001EBC0060020187054
:104E20005E607CA05861601C84B2092CEBD304EB5B
:104E30004400774901EBC00300201870586075A04A
:104E4000586108467449086070BD70B54FF4F2614E
:104E50007248FFF7C8FF4FF480715D48FFF7C3FF4A
:104E6000002413E0601CC5B204EB440000EBC40056
:104E70006A4901EBC00305EB450000EBC50001EBFF
:104E8000C0065E6163A01865601CC4B2152CE9D32E
:104E900004EB440000EBC400604901EBC0030020B8
:104EA00058615CA0186500205D4908605B485D4959
:104EB000086070BD00215C4A1170002004E00021F0
:104EC0005A4A1154411CC8B20828F8D30021584A44
:104ED0001170584A1170584A11603C4A116070476D
:104EE00000205649086056490870564908705649CE
:104EF00008705649087056490860394908603949B0
:104F000008603549086033490870704710B5FFF7ED
:104F10001DFBFFF7E5FFFFF7CDFFFFF796FFFFF75C
:104F20006BFF00F01FFF01F04AF801F076FBFFF77E
:104F30003EFFFFF70FFF02F005FEFFF716FB10BD67
:104F400042480078012808D13D480078FF2804D263
:104F50003B480078401C3A490870704710B500245F
:104F60003A480078012830D1FFF7B0FB04463448B6
:104F7000007820B132480078401E3149087030482E
:104F80000078F8B92F480078E0B9FFF790FC104896
:104F90002849097850F821002749086025480078F9
:104FA0002349097888420DD023480068C06B401C13
:104FB00021490968C86326480068401C24490860E4
:104FC000FFF7A0FB2046FFF785FB10BD380100204E
:104FD000E80A0020240100201C0100201801002004
:104FE0003401002020010020E806002075432F4FE7
:104FF000532D49492053746174000000E8080020D3
:1050000075432F4F532D49492049646C65000000BA
:10501000A80500203F00000010010020E80B002040
:10502000440100203C010020290100202A01002029
:105030002701002028010020400100205401002009
:10504000250100202601002033010020320100202C
:105050000C01002010B50024FF480078012811D170
:10506000FFF734FB0446FD48007840B9FC4800785F
:10507000FF2804D2FA480078401CF94908702046FD
:10508000FFF728FB10BD10B50024F3480078012875
:1050900021D1FFF71BFB0446F1480078C0B1F0486E
:1050A0000078401EEE4908700846007860B9EB4869
:1050B000007828B92046FFF70DFBFFF705FC0AE052
:1050C0002046FFF707FB06E02046FFF703FB02E060
:1050D0002046FFF7FFFA10BD10B5DF48007890B901
:1050E000FFF7E5FBDF480078DF490870DF48DD495E
:1050F000097850F82100DE49086008460068DD495B
:105100000860FFF7EAFA10BD10B50024022002F093
:105110003DF9FFF7DBFA04460020D7490860204636
:10512000FFF7D8FA642002F031F9FFF7CFFA04460E
:10513000D1480068D14908600120D1490870204653
:10514000FFF7C8FA10BD70B50026FFF762FAFFF747
:10515000BDFA0646CB480068401CCA490860304684
:10516000FFF7B8FABC480078012857D1C648007844
:1051700020B1012804D0022809D103E001250BE069
:10518000002509E001250120BF49087004E0012540
:105190000020BD49087000BF00BF05B970BDBB4805
:1051A000046837E0FFF792FA0646206B70B3206B75
:1051B000401E2063206B48BB94F8340010F0370F7A
:1051C00009D014F8340F00F0C8002070012060707E
:1051D000A4F1340402E0002084F8350094F834008F
:1051E00010F0080F12D104F13804A078A84909780A
:1051F00040EA0100A64908702078A649085C617859
:1052000040EA010014F83819A24A50546469304643
:10521000FFF760FA94F836003F28C3D100BFBDE71E
:1052200040F223107047704710B590F8382001F114
:105230000B039B5C90F83940E443E4B2234001F156
:105240000B04A35423469B5C33B98B7A90F83A4005
:10525000E443E4B223408B7210BD2DE9F04F0546C4
:105260000F4690469946A87A8B490E5C05F10B00D3
:10527000805D11F800B00BEBC60000F0FF0A7B4820
:1052800050F82A40002004F12404E0602760207CCC
:105290006FEA0801C9B200EA0100207484F8119095
:1052A000207CA4F1240410F0080F0DD194F83A00EA
:1052B000774909780843764908707648805D94F804
:1052C000391008437349885529462046FFF7ACFF3B
:1052D000206A20B12046216AFFF7C1FAE5615046F5
:1052E000BDE8F08F10B5634A1268D061614A126858
:1052F00092F8383000F10B02D25C5E4B1B6893F8D9
:1053000039301A435B4B1B6893F8384000F10B03AC
:105310001A55827A574B1B6893F83A301A438272B7
:10532000544A126892F838105A4A525C514B1B6822
:1053300093F83930DB43DBB21A40564B5A541A46C5
:10534000525C52B94B4A126892F83A20D243D2B218
:105350004F4B1B781A404E4B1A7010BD014600226D
:105360008A72002005E0002301F10B021354421C55
:10537000D0B20828F7D3704705E011F8013B00F8D8
:10538000013B531E9AB2002AF7D170472DE9FF4F17
:1053900081B005460F4690469946DDE90EAB0020E8
:1053A0000090FFF793F900903C480468DCB304F1E7
:1053B0001C0454F8080C394908600098FFF78AF972
:1053C00044F81C7CA576002020766076606144F865
:1053D00018BC44F810AC44F8148C109824F80C0C49
:1053E00024F80A9C0020E077E810207705F00700F9
:1053F000E076217F01208840A077E17E012088406F
:105400006077002020606060E060A0602062A062A1
:105410006062E0622063AFF204406063A4F11C04A8
:105420004FF0000607E066E0002104F1540040F868
:105430002610701CC6B2002EF6D02046FFF7E8F802
:105440002046FFF793F8FFF741F90090074840F82E
:1054500025400E48006823E032010020250100208D
:10546000260100202801002027010020E80A002052
:105470004001002038010020340100201C010020E0
:105480002401002054010020480100204401002094
:10549000290100202A010020E88D00083C0100209D
:1054A00060610020A0611648006810B114480068CF
:1054B00084611348046004F13804A0781149097824
:1054C00040EA01000F49087020780F49085C6178B4
:1054D00040EA010014F838190B4A50540B48007880
:1054E00000F10100094908700098FFF7F3F8002067
:1054F00005B0BDE8F08F0098FFF7ECF84220F7E721
:1055000044010020290100202A010020330100204D
:105510002DE9F05F05460F4691461E464FF0000B01
:1055200025B96E2030700020BDE8F09F287805284E
:1055300003D0012030700020F6E709F0800ABAF1AC
:10554000000F04D029F080094FF0010801E04FF06E
:10555000000800203070FFF7B9F88346B9F1000F5A
:1055600030D0B9F1010F41D0B9F1020F03D0B9F138
:10557000030F4ED113E0288900EA0704BC4208D18A
:10558000B8F1010F07D12889E14389B20840288189
:1055900001E0702030705846FFF79CF840E0288901
:1055A00000EA070444B1B8F1010F07D12889E143AB
:1055B00089B20840288101E0702030705846FFF71A
:1055C00089F82DE02889C04380B200EA0704BC4274
:1055D00006D1B8F1010F05D128892043288101E0C7
:1055E000702030705846FFF775F819E02889C043DD
:1055F00080B200EA070434B1B8F1010F05D128895F
:105600002043288101E0702030705846FFF762F88F
:1056100006E05846FFF75EF800246F20307000BFA8
:1056200000BF204680E72DE9F04106460D460027E1
:10563000FF48007820B1102028700020BDE8F081DC
:10564000FFF744F80746FB48046884B100684068E7
:10565000F849086005202070268100206060F6A0CF
:10566000E0603846FFF736F80020287004E038463E
:10567000FFF730F8722028702046DFE730B501468A
:105680004A6808682AB9CC68606028B1002545607E
:1056900002E0106000B142608B6800259D6230BD61
:1056A000F0B506460F46B468002004F12C04606093
:1056B0002780207A00F0DF0020724FF00000607237
:1056C000207AA4F12C04A8B904F13804A078DB49AD
:1056D000097840EA0100D94908702078D849085C67
:1056E000617840EA010014F83819D54A50544FF057
:1056F000010500E000253046FFF7C0FF2846F0BD59
:105700002DE9F0470446894615464FF0000A24B9B2
:105710006E2028702046BDE8F087C548007818B193
:105720000F2028702046F6E72078052803D00120B6
:1057300028702046EFE7FEF7C9FF8246606808B18F
:10574000012700E00027B9F1000F03D0B9F1010FE4
:105750003CD119E08FB9B8A0E06000202070B548B6
:105760000068606000202081B24804605046FEF767
:10577000B1FF00202870002605E05046FEF7AAFF82
:1057800049202870264628E0D4F8048005E000214E
:105790004046FFF785FFD8F80080B8F1000FF6D13A
:1057A000A5A0E06000202070A24800686060002092
:1057B0002081A04804605046FEF78CFF012F01D1E4
:1057C000FFF782F800202870002606E05046FEF71A
:1057D00081FF07202870264600BF00BF30469AE7A9
:1057E0002DE9F04105460E461446002725B96E20E6
:1057F00020700020BDE8F0811EB90C202070002030
:10580000F8E78B48007818B1112020700020F1E7EC
:10581000FEF75CFF07462878052806D03846FEF7D5
:1058200059FF012020700020E4E7E868306030680C
:10583000FEF79EFF80463846FEF74CFF00202070A2
:105840004046D7E72DE9F04105460E4614460027AD
:105850001DB96E202070BDE8F08116B90C202070B3
:10586000F9E77348007810B112202070F3E7FEF7D3
:105870002DFF07462878052805D03846FEF72AFF71
:1058800001202070E7E7EE603846FEF723FF002096
:10589000207000BFDFE7F0B51446059E694F3F68F2
:1058A00097F8347047F02007DFF898C1DCF800C0A3
:1058B0008CF834700027DFF88CC1DCF800C08CF85D
:1058C0003570604F3F683E635E4F3F68B9620C823F
:1058D0008B745C4F3F688F6047680F6000274F6094
:1058E000C860456805B169604160564F3F6897F8E8
:1058F0003820534FBF5CDFF84CC1DCF800C09CF887
:1059000039C06FEA0C0C0CF0FF0C07EA0C07DFF84B
:1059100030C10CF802706746BF5C7FB9494F3F68E1
:1059200097F83A70FF43FFB2DFF810C19CF800C04F
:1059300007EA0C07DFF804C18CF80070F0BD2DE910
:10594000FF4F87B005460F469146149E00200190F8
:105950002DB96E20307000200BB0BDE8F08F3448B8
:10596000007818B1022030700020F5E73648007842
:1059700018B10D2030700020EEE72878052803D0FC
:10598000012030700020E7E709F0800ABAF1000F2B
:1059900004D009F07F094FF0010801E04FF0000842
:1059A000FEF794FE0190B9F1000F5DD0B9F1010F3F
:1059B0007FD0B9F1020F03D0B9F1030F6CD122E00F
:1059C000288900EA0704BC4211D1B8F1010F04D1C3
:1059D0002889E14389B2084028811A4800688485F3
:1059E0000198FEF777FE002030702046B4E70A9B4E
:1059F00000934B463A4602A92846FFF74CFF019810
:105A0000FEF768FE7FE0288900EA070404B3B8F1D6
:105A1000010F04D12889E14389B20840288109484F
:105A2000006884850198FEF755FE002030700DE077
:105A300025010020140100203F0000002901002062
:105A40002A0100203801002026010020204683E79B
:105A50000A9B00934B463A4602A92846FFF71BFFD4
:105A60000198FEF737FE4EE02889C04380B200EA75
:105A70000704BC4211D1B8F1010F02D1288920439B
:105A80002881CC48006884850198FEF723FE002019
:105A90003070204660E70CE02DE00A9B00934B46F7
:105AA0003A4602A92846FFF7F6FE0198FEF712FED5
:105AB00029E02889C04380B200EA07047CB1B8F12C
:105AC000010F02D1288920432881BA4800688485C3
:105AD0000198FEF7FFFD0020307020463CE70A9B4E
